:100000000C9472000C9493000C9493000C94930045
:100010000C9493000C9493000C9493000C94930014
:100020000C9493000C9493000C9493000C94930004
:100030000C9493000C9493000C9493000C949300F4
:100040000C9493000C9493000C9493000C949300E4
:100050000C9493000C9493000C9493000C949300D4
:100060000C9493000C9493000C9493000C949300C4
:100070000C9493000C9493000C9493000C949300B4
:100080000C9493000C9493000C9493000C949300A4
:100090000C9493000C9493000C9493000C94930094
:1000A0000C9493000C9493000C9493000C94930084
:1000B0000C9493000C9493000C9493000C94930074
:1000C0000C9493000C9493000C9493000C94930064
:1000D0000C9493000C9493000C9493000C94930054
:1000E0000C94930011241FBECFEFD1E2DEBFCDBF31
:1000F00000E00CBF13E0A0E0B2E0E4E1F9E000E0D2
:100100000BBF02C007900D92A030B107D9F714E0E1
:10011000A0E0B3E001C01D92A030B107E1F70E945A
:10012000FA020C9488040C940000CF93DF9300D063
:100130001F92CDB7DEB79A8389837C836B838981D5
:100140009A812B813C81FC013183208380E590E002
:10015000FC0110820F900F900F900F90DF91CF91C4
:100160000895CF93DF9300D000D0CDB7DEB79A8348
:1001700089837C836B835E834D8389819A812B8104
:100180003C81FC01318320832D813E8189819A81CC
:10019000B9010E94310126960FB6F894DEBF0FBE5A
:1001A000CDBFDF91CF910895CF93DF931F921F9220
:1001B000CDB7DEB79A8389830F900F90DF91CF91EF
:1001C0000895CF93DF9300D0CDB7DEB79B838A83AA
:1001D0008A819B81FC01808191819C01C901880FEA
:1001E000991F880F991F880F991F821B930B8C5F93
:1001F0009D4FFC0180819181FC018081482F50E05E
:100200008A819B81FC01808191819C01C901880FB9
:10021000991F880F991F880F991F821B930B8A5F64
:100220009D4FFC018081882F90E09A0102C0359596
:1002300027958A95E2F7C9018170992721E00097F7
:1002400009F420E029838981882319F081E090E076
:1002500002C080E090E00F900F900F90DF91CF915F
:100260000895CF93DF9300D01F92CDB7DEB79A8366
:1002700089837C836B838B819C818130910509F01C
:100280004CC089819A81FC01808191819C01C901C6
:10029000880F991F880F991F880F991F821B930B36
:1002A0008C5F9D4FFC014081518189819A81FC01C5
:1002B000808191819C01C901880F991F880F991F26
:1002C000880F991F821B930B8C5F9D4FFC018081CF
:1002D0009181FC018081682F89819A81FC01808154
:1002E00091819C01C901880F991F880F991F880F60
:1002F000991F821B930B8A5F9D4FFC018081282FE1
:1003000030E081E090E0022E02C0880F991F0A942D
:10031000E2F7862BFA0180834FC089819A81FC0124
:10032000808191819C01C901880F991F880F991FB5
:10033000880F991F821B930B8C5F9D4FFC0140819E
:10034000518189819A81FC01808191819C01C9013F
:10035000880F991F880F991F880F991F821B930B75
:100360008C5F9D4FFC0180819181FC018081682F11
:1003700089819A81FC01808191819C01C901880F4A
:10038000991F880F991F880F991F821B930B8A5FF3
:100390009D4FFC018081282F30E081E090E002C079
:1003A000880F991F2A95E2F721E0009709F020E0D5
:1003B000822F8623FA0180830F900F900F900F9069
:1003C000DF91CF910895CF93DF9300D0CDB7DEB703
:1003D0009A8389836B838B81882309F44CC089813C
:1003E0009A81FC01808191819C01C901880F991F2C
:1003F000880F991F880F991F821B930B80509E4F67
:10040000FC014081518189819A81FC018081918127
:100410009C01C901880F991F880F991F880F991F88
:10042000821B930B80509E4FFC0180819181FC01C7
:100430008081682F89819A81FC01808191819C0152
:10044000C901880F991F880F991F880F991F821B58
:10045000930B8A5F9D4FFC018081282F30E081E063
:1004600090E0022E02C0880F991F0A94E2F7862BB3
:10047000FA0180834FC089819A81FC01808191813A
:100480009C01C901880F991F880F991F880F991F18
:10049000821B930B80509E4FFC01408151818981CA
:1004A0009A81FC01808191819C01C901880F991F6B
:1004B000880F991F880F991F821B930B80509E4FA6
:1004C000FC0180819181FC018081682F89819A8162
:1004D000FC01808191819C01C901880F991F880FBF
:1004E000991F880F991F821B930B8A5F9D4FFC01F8
:1004F0008081282F30E081E090E002C0880F991FB2
:100500002A95E2F721E0009709F020E0822F862368
:10051000FA0180830F900F900F90DF91CF91089593
:10052000CF93DF931F921F92CDB7DEB79A83898353
:1005300089819A81FC01808191819C01C901880F88
:10054000991F880F991F880F991F821B930B8E5F2D
:100550009D4FFC0180819181FC018081482F50E0FA
:1005600089819A81FC01808191819C01C901880F58
:10057000991F880F991F880F991F821B930B8A5F01
:100580009D4FFC018081882F90E09A0102C0359533
:1005900027958A95E2F7C9018170992721E0009794
:1005A00009F420E0822F0F900F90DF91CF910895F2
:1005B000CF93DF931F921F92CDB7DEB79A838983C3
:1005C00089819A810E944F030F900F90DF91CF9104
:1005D0000895CF93DF931F921F92CDB7DEB79A8312
:1005E000898389819A810E94EA030F900F90DF919D
:1005F000CF910895CF93DF93CDB7DEB728970FB68D
:10060000F894DEBF0FBECDBF81E091E02FEFFC017B
:10061000208382E091E02FEFFC01208319821A826F
:100620001B821C820BC089819A81AB81BC8101969F
:10063000A11DB11D89839A83AB83BC8321E089818D
:100640009A81AB81BC818F3FFFE49F07A105B10573
:1006500008F020E0222339F782E091E0FC011082CB
:100660001D821E821F8218860BC08D819E81AF81E4
:10067000B8850196A11DB11D8D839E83AF83B88778
:1006800021E08D819E81AF81B8858F3FFFE49F0778
:10069000A105B10508F020E0222339F7BACF0F9366
:1006A0001F93CF93DF938230910510F482E090E0A6
:1006B000E0911E02F0911F0220E030E0C0E0D0E0A7
:1006C00023C04081518148175907A8F0481759079E
:1006D00061F482819381209719F09B838A832EC0D5
:1006E00090931F0280931E0229C02115310529F025
:1006F0004217530710F0A90102C0BE01DF010281B9
:100700001381EF019A01F8013097D9F621153105CF
:1007100009F1281B390B2430310590F412968D9184
:100720009C9113976115710521F0FB0193838283DE
:1007300004C090931F0280931E02FD01329644C0B4
:10074000FD01E20FF31F81939193225031092D9304
:100750003C933AC020911C0230911D02232B41F49E
:10076000209117023091180230931D0220931C0231
:1007700020911502309116022115310541F42DB753
:100780003EB74091190250911A02241B350BE0919B
:100790001C02F0911D02E217F307A0F42E1B3F0B81
:1007A0002817390778F0AC014E5F5F4F24173507E3
:1007B00048F04E0F5F1F50931D0240931C0281931F
:1007C000919302C0E0E0F0E0CF01DF91CF911F9163
:1007D0000F910895EF92FF920F931F93CF93DF93A2
:1007E000009709F48EC0DC01129713961C921E929A
:1007F0001297E0901E02F0901F02E114F10489F4B8
:100800002D913C911197280F391F80911C029091D6
:100810001D028217930789F5B0931D02A0931C0255
:1008200070C0E70120E030E001C0EA01CA17DB0731
:1008300038F44A815B819E0141155105B1F722C010
:10084000AC0142505109FA01D383C2830081118166
:10085000BC01600F711F6C177D0761F4688179819D
:10086000600F711F6E5F7F4F718360836A817B8130
:10087000738362832115310529F4B0931F02A0937D
:100880001E023FC0F901B383A283E9014991599146
:10089000C40FD51FAC17BD0771F4DC019E918E917A
:1008A000840F951F02969183808312968D919C915F
:1008B000139793838283A0E0B0E002C0D7017C014C
:1008C000F701828193810097C9F7C70102962081C1
:1008D0003181820F931F20911C0230911D02281735
:1008E000390779F4109729F410921F0210921E0212
:1008F00004C013961C921E921297F0921D02E09271
:100900001C02DF91CF911F910F91FF90EF900895FE
:04091000F894FFCF89
:10091400380036003700043800360037000535004B
:0C09240033003400025F040004200000D7
:00000001FF
